{
  "_format": "hh-sol-artifact-1",
  "contractName": "ERC1155WrapperFactory",
  "sourceName": "contracts/ERC1155WrapperFactory.sol",
  "abi": [
    {
      "inputs": [
        {
          "internalType": "address",
          "name": "_implementation",
          "type": "address"
        },
        {
          "internalType": "address",
          "name": "_conditionalTokens",
          "type": "address"
        }
      ],
      "stateMutability": "nonpayable",
      "type": "constructor"
    },
    {
      "anonymous": false,
      "inputs": [
        {
          "indexed": true,
          "internalType": "address",
          "name": "previousOwner",
          "type": "address"
        },
        {
          "indexed": true,
          "internalType": "address",
          "name": "newOwner",
          "type": "address"
        }
      ],
      "name": "OwnershipTransferred",
      "type": "event"
    },
    {
      "anonymous": false,
      "inputs": [
        {
          "indexed": true,
          "internalType": "address",
          "name": "implementation",
          "type": "address"
        }
      ],
      "name": "Upgraded",
      "type": "event"
    },
    {
      "anonymous": false,
      "inputs": [
        {
          "indexed": false,
          "internalType": "address",
          "name": "wrapperAddress",
          "type": "address"
        }
      ],
      "name": "WrapperCreated",
      "type": "event"
    },
    {
      "inputs": [],
      "name": "conditionalTokensAddress",
      "outputs": [
        {
          "internalType": "address",
          "name": "",
          "type": "address"
        }
      ],
      "stateMutability": "view",
      "type": "function"
    },
    {
      "inputs": [
        {
          "internalType": "string",
          "name": "_name",
          "type": "string"
        },
        {
          "internalType": "string",
          "name": "_symbol",
          "type": "string"
        },
        {
          "internalType": "uint256",
          "name": "_positionId",
          "type": "uint256"
        }
      ],
      "name": "createWrapper",
      "outputs": [],
      "stateMutability": "nonpayable",
      "type": "function"
    },
    {
      "inputs": [],
      "name": "getWrappersAmount",
      "outputs": [
        {
          "internalType": "uint256",
          "name": "",
          "type": "uint256"
        }
      ],
      "stateMutability": "view",
      "type": "function"
    },
    {
      "inputs": [],
      "name": "implementation",
      "outputs": [
        {
          "internalType": "address",
          "name": "",
          "type": "address"
        }
      ],
      "stateMutability": "view",
      "type": "function"
    },
    {
      "inputs": [],
      "name": "owner",
      "outputs": [
        {
          "internalType": "address",
          "name": "",
          "type": "address"
        }
      ],
      "stateMutability": "view",
      "type": "function"
    },
    {
      "inputs": [],
      "name": "renounceOwnership",
      "outputs": [],
      "stateMutability": "nonpayable",
      "type": "function"
    },
    {
      "inputs": [
        {
          "internalType": "address",
          "name": "newOwner",
          "type": "address"
        }
      ],
      "name": "transferOwnership",
      "outputs": [],
      "stateMutability": "nonpayable",
      "type": "function"
    },
    {
      "inputs": [
        {
          "internalType": "address",
          "name": "newImplementation",
          "type": "address"
        }
      ],
      "name": "upgradeTo",
      "outputs": [],
      "stateMutability": "nonpayable",
      "type": "function"
    },
    {
      "inputs": [
        {
          "internalType": "uint256",
          "name": "",
          "type": "uint256"
        }
      ],
      "name": "wrappers",
      "outputs": [
        {
          "internalType": "address",
          "name": "",
          "type": "address"
        }
      ],
      "stateMutability": "view",
      "type": "function"
    }
  ],
  "bytecode": "0x608060405234801561001057600080fd5b5060405161133e38038061133e83398101604081905261002f91610133565b81600061003a6100b4565b600080546001600160a01b0319166001600160a01b0383169081178255604051929350917f8be0079c531659141344cd1fd0a4f28419497f9722a3daafe3b4186f6b6457e0908290a35061008d816100b8565b50600280546001600160a01b0319166001600160a01b0392909216919091179055506101c2565b3390565b6100cb8161011260201b6104de1760201c565b6100f05760405162461bcd60e51b81526004016100e790610165565b60405180910390fd5b600180546001600160a01b0319166001600160a01b0392909216919091179055565b803b15155b919050565b80516001600160a01b038116811461011757600080fd5b60008060408385031215610145578182fd5b61014e8361011c565b915061015c6020840161011c565b90509250929050565b60208082526033908201527f5570677261646561626c65426561636f6e3a20696d706c656d656e746174696f60408201527f6e206973206e6f74206120636f6e747261637400000000000000000000000000606082015260800190565b61116d806101d16000396000f3fe60806040523480156200001157600080fd5b5060043610620000a05760003560e01c8063715018a6116200006f578063715018a614620001035780638da5cb5b146200010d578063a2783e781462000117578063cba45df2146200012e578063f2fde38b146200014557620000a0565b806305feba5914620000a55780633659cfe614620000c7578063559c8fc214620000e05780635c60da1b14620000f9575b600080fd5b620000af6200015c565b604051620000be919062000833565b60405180910390f35b620000de620000d83660046200058c565b62000162565b005b620000ea620001f3565b604051620000be9190620006c5565b620000ea62000202565b620000de62000211565b620000ea620002a1565b620000de62000128366004620005bc565b620002b0565b620000ea6200013f36600462000634565b620003e9565b620000de620001563660046200058c565b62000414565b60035490565b6200016c620004e4565b6001600160a01b03166200017f620002a1565b6001600160a01b031614620001b15760405162461bcd60e51b8152600401620001a890620007fe565b60405180910390fd5b620001bc81620004e8565b6040516001600160a01b038216907fbc7cd75a20ee27fd9adebab32041f755214dbc6bffa90cc0225b39da2e5c2d3b90600090a250565b6002546001600160a01b031681565b6001546001600160a01b031690565b6200021b620004e4565b6001600160a01b03166200022e620002a1565b6001600160a01b031614620002575760405162461bcd60e51b8152600401620001a890620007fe565b600080546040516001600160a01b03909116907f8be0079c531659141344cd1fd0a4f28419497f9722a3daafe3b4186f6b6457e0908390a3600080546001600160a01b0319169055565b6000546001600160a01b031690565b60008060405180602001620002c59062000534565b601f1982820381018352601f909101166040819052600254309162000301918b918b918b918b916001600160a01b0316908b906024016200071b565b60408051601f19818403018152918152602080830180516001600160e01b031663f542033f60e01b17905290516200033d9493929101620006d9565b6040516020818303038152906040529050828151602083016000f5600380546001810182556000919091527fc2575a0e9e593c00f959f8c92f12db2869c3395a3b0502d05e2516446f71f85b0180546001600160a01b0319166001600160a01b0383161790556040519092507fc67b3b27e4a7590b0ac11d5ea32726ca717e7225caf451f04f9da0f9f32fedb090620003d8908490620006c5565b60405180910390a150505050505050565b60038181548110620003fa57600080fd5b6000918252602090912001546001600160a01b0316905081565b6200041e620004e4565b6001600160a01b031662000431620002a1565b6001600160a01b0316146200045a5760405162461bcd60e51b8152600401620001a890620007fe565b6001600160a01b038116620004835760405162461bcd60e51b8152600401620001a89062000765565b600080546040516001600160a01b03808516939216917f8be0079c531659141344cd1fd0a4f28419497f9722a3daafe3b4186f6b6457e091a3600080546001600160a01b0319166001600160a01b0392909216919091179055565b3b151590565b3390565b620004f381620004de565b620005125760405162461bcd60e51b8152600401620001a890620007ab565b600180546001600160a01b0319166001600160a01b0392909216919091179055565b6108fb806200083d83390190565b60008083601f84011262000554578182fd5b50813567ffffffffffffffff8111156200056c578182fd5b6020830191508360208285010111156200058557600080fd5b9250929050565b6000602082840312156200059e578081fd5b81356001600160a01b0381168114620005b5578182fd5b9392505050565b600080600080600060608688031215620005d4578081fd5b853567ffffffffffffffff80821115620005ec578283fd5b620005fa89838a0162000542565b9097509550602088013591508082111562000613578283fd5b50620006228882890162000542565b96999598509660400135949350505050565b60006020828403121562000646578081fd5b5035919050565b60008151808452815b81811015620006745760208185018101518683018201520162000656565b81811115620006865782602083870101525b50601f01601f19169290920160200192915050565b60008284528282602086013780602084860101526020601f19601f85011685010190509392505050565b6001600160a01b0391909116815260200190565b600060608252620006ee60608301866200064d565b6001600160a01b038516602084015282810360408401526200071181856200064d565b9695505050505050565b6000608082526200073160808301888a6200069b565b8281036020840152620007468187896200069b565b6001600160a01b03959095166040840152505060600152949350505050565b60208082526026908201527f4f776e61626c653a206e6577206f776e657220697320746865207a65726f206160408201526564647265737360d01b606082015260800190565b60208082526033908201527f5570677261646561626c65426561636f6e3a20696d706c656d656e746174696f6040820152721b881a5cc81b9bdd08184818dbdb9d1c9858dd606a1b606082015260800190565b6020808252818101527f4f776e61626c653a2063616c6c6572206973206e6f7420746865206f776e6572604082015260600190565b9081526020019056fe60806040526040516108fb3803806108fb83398101604081905261002291610358565b61004d60017fa3f0ad74e5423aebfd80d3ef4346578335a9a72aeaee59ff6cb3582b35133d51610545565b6000805160206108ba8339815191521461007757634e487b7160e01b600052600160045260246000fd5b6100818282610088565b50506105aa565b61009b826101b360201b6100311760201c565b6100c05760405162461bcd60e51b81526004016100b79061045d565b60405180910390fd5b610143826001600160a01b0316635c60da1b6040518163ffffffff1660e01b815260040160206040518083038186803b1580156100fc57600080fd5b505afa158015610110573d6000803e3d6000fd5b505050506040513d601f19601f82011682018060405250810190610134919061033e565b6101b360201b6100311760201c565b61015f5760405162461bcd60e51b81526004016100b7906104e8565b6000805160206108ba8339815191528281558151156101ae576101ac6101836101bd565b836040518060600160405280602181526020016108da6021913961023c60201b6100371760201c565b505b505050565b803b15155b919050565b60006101c76102db565b6001600160a01b0316635c60da1b6040518163ffffffff1660e01b815260040160206040518083038186803b1580156101ff57600080fd5b505afa158015610213573d6000803e3d6000fd5b505050506040513d601f19601f82011682018060405250810190610237919061033e565b905090565b6060610247846101b3565b6102635760405162461bcd60e51b81526004016100b7906104a2565b600080856001600160a01b03168560405161027e919061040e565b600060405180830381855af49150503d80600081146102b9576040519150601f19603f3d011682016040523d82523d6000602084013e6102be565b606091505b5090925090506102cf8282866102ee565b925050505b9392505050565b6000805160206108ba8339815191525490565b606083156102fd5750816102d4565b82511561030d5782518084602001fd5b8160405162461bcd60e51b81526004016100b7919061042a565b80516001600160a01b03811681146101b857600080fd5b60006020828403121561034f578081fd5b6102d482610327565b6000806040838503121561036a578081fd5b61037383610327565b60208401519092506001600160401b038082111561038f578283fd5b818501915085601f8301126103a2578283fd5b8151818111156103b4576103b4610594565b604051601f8201601f1916810160200183811182821017156103d8576103d8610594565b6040528181528382016020018810156103ef578485fd5b610400826020830160208701610568565b809450505050509250929050565b60008251610420818460208701610568565b9190910192915050565b6000602082528251806020840152610449816040850160208701610568565b601f01601f19169190910160400192915050565b60208082526025908201527f426561636f6e50726f78793a20626561636f6e206973206e6f74206120636f6e6040820152641d1c9858dd60da1b606082015260800190565b60208082526026908201527f416464726573733a2064656c65676174652063616c6c20746f206e6f6e2d636f6040820152651b9d1c9858dd60d21b606082015260800190565b60208082526034908201527f426561636f6e50726f78793a20626561636f6e20696d706c656d656e7461746960408201527f6f6e206973206e6f74206120636f6e7472616374000000000000000000000000606082015260800190565b60008282101561056357634e487b7160e01b81526011600452602481fd5b500390565b60005b8381101561058357818101518382015260200161056b565b838111156101ac5750506000910152565b634e487b7160e01b600052604160045260246000fd5b610301806105b96000396000f3fe60806040523661001357610011610017565b005b6100115b61001f61002f565b61002f61002a6100de565b61015d565b565b3b151590565b606061004284610031565b6100675760405162461bcd60e51b815260040161005e90610255565b60405180910390fd5b600080856001600160a01b0316856040516100829190610206565b600060405180830381855af49150503d80600081146100bd576040519150601f19603f3d011682016040523d82523d6000602084013e6100c2565b606091505b50915091506100d2828286610181565b925050505b9392505050565b60006100e86101ba565b6001600160a01b0316635c60da1b6040518163ffffffff1660e01b815260040160206040518083038186803b15801561012057600080fd5b505afa158015610134573d6000803e3d6000fd5b505050506040513d601f19601f8201168201806040525081019061015891906101df565b905090565b3660008037600080366000845af43d6000803e80801561017c573d6000f35b3d6000fd5b606083156101905750816100d7565b8251156101a05782518084602001fd5b8160405162461bcd60e51b815260040161005e9190610222565b7fa3f0ad74e5423aebfd80d3ef4346578335a9a72aeaee59ff6cb3582b35133d505490565b6000602082840312156101f0578081fd5b81516001600160a01b03811681146100d7578182fd5b6000825161021881846020870161029b565b9190910192915050565b600060208252825180602084015261024181604085016020870161029b565b601f01601f19169190910160400192915050565b60208082526026908201527f416464726573733a2064656c65676174652063616c6c20746f206e6f6e2d636f6040820152651b9d1c9858dd60d21b606082015260800190565b60005b838110156102b657818101518382015260200161029e565b838111156102c5576000848401525b5050505056fea2646970667358221220440560a13316f3c3b32c7b0a4f6f8c97206be481ad042357b453f58b7ab6ed9264736f6c63430008000033a3f0ad74e5423aebfd80d3ef4346578335a9a72aeaee59ff6cb3582b35133d50426561636f6e50726f78793a2066756e6374696f6e2063616c6c206661696c6564a26469706673582212207b123659331201f1fd4fe64e42033392244c1d4bde1a914f9680f10037c06d1b64736f6c63430008000033",
  "linkReferences": {},
  "deployedLinkReferences": {}
}