{
  "_format": "hh-sol-artifact-1",
  "contractName": "ERC1155Wrapper",
  "sourceName": "contracts/ERC1155Wrapper.sol",
  "abi": [
    {
      "anonymous": false,
      "inputs": [
        {
          "indexed": true,
          "internalType": "address",
          "name": "owner",
          "type": "address"
        },
        {
          "indexed": true,
          "internalType": "address",
          "name": "spender",
          "type": "address"
        },
        {
          "indexed": false,
          "internalType": "uint256",
          "name": "value",
          "type": "uint256"
        }
      ],
      "name": "Approval",
      "type": "event"
    },
    {
      "anonymous": false,
      "inputs": [
        {
          "indexed": false,
          "internalType": "address",
          "name": "account",
          "type": "address"
        },
        {
          "indexed": false,
          "internalType": "uint256",
          "name": "amount",
          "type": "uint256"
        }
      ],
      "name": "Deposited",
      "type": "event"
    },
    {
      "anonymous": false,
      "inputs": [
        {
          "indexed": false,
          "internalType": "string",
          "name": "name",
          "type": "string"
        },
        {
          "indexed": false,
          "internalType": "string",
          "name": "symbol",
          "type": "string"
        },
        {
          "indexed": false,
          "internalType": "address",
          "name": "wrappedERC1155Address",
          "type": "address"
        },
        {
          "indexed": false,
          "internalType": "uint256",
          "name": "positionId",
          "type": "uint256"
        }
      ],
      "name": "Initialized",
      "type": "event"
    },
    {
      "anonymous": false,
      "inputs": [
        {
          "indexed": true,
          "internalType": "address",
          "name": "previousOwner",
          "type": "address"
        },
        {
          "indexed": true,
          "internalType": "address",
          "name": "newOwner",
          "type": "address"
        }
      ],
      "name": "OwnershipTransferred",
      "type": "event"
    },
    {
      "anonymous": false,
      "inputs": [
        {
          "indexed": true,
          "internalType": "address",
          "name": "from",
          "type": "address"
        },
        {
          "indexed": true,
          "internalType": "address",
          "name": "to",
          "type": "address"
        },
        {
          "indexed": false,
          "internalType": "uint256",
          "name": "value",
          "type": "uint256"
        }
      ],
      "name": "Transfer",
      "type": "event"
    },
    {
      "anonymous": false,
      "inputs": [
        {
          "indexed": false,
          "internalType": "address",
          "name": "account",
          "type": "address"
        },
        {
          "indexed": false,
          "internalType": "uint256",
          "name": "amount",
          "type": "uint256"
        }
      ],
      "name": "Withdrawn",
      "type": "event"
    },
    {
      "inputs": [],
      "name": "BATCH_RECEIVER_FUNCTION_SELECTOR",
      "outputs": [
        {
          "internalType": "bytes4",
          "name": "",
          "type": "bytes4"
        }
      ],
      "stateMutability": "view",
      "type": "function"
    },
    {
      "inputs": [],
      "name": "SINGLE_RECEIVER_FUNCTION_SELECTOR",
      "outputs": [
        {
          "internalType": "bytes4",
          "name": "",
          "type": "bytes4"
        }
      ],
      "stateMutability": "view",
      "type": "function"
    },
    {
      "inputs": [
        {
          "internalType": "address",
          "name": "owner",
          "type": "address"
        },
        {
          "internalType": "address",
          "name": "spender",
          "type": "address"
        }
      ],
      "name": "allowance",
      "outputs": [
        {
          "internalType": "uint256",
          "name": "",
          "type": "uint256"
        }
      ],
      "stateMutability": "view",
      "type": "function"
    },
    {
      "inputs": [
        {
          "internalType": "address",
          "name": "spender",
          "type": "address"
        },
        {
          "internalType": "uint256",
          "name": "amount",
          "type": "uint256"
        }
      ],
      "name": "approve",
      "outputs": [
        {
          "internalType": "bool",
          "name": "",
          "type": "bool"
        }
      ],
      "stateMutability": "nonpayable",
      "type": "function"
    },
    {
      "inputs": [
        {
          "internalType": "address",
          "name": "account",
          "type": "address"
        }
      ],
      "name": "balanceOf",
      "outputs": [
        {
          "internalType": "uint256",
          "name": "",
          "type": "uint256"
        }
      ],
      "stateMutability": "view",
      "type": "function"
    },
    {
      "inputs": [],
      "name": "decimals",
      "outputs": [
        {
          "internalType": "uint8",
          "name": "",
          "type": "uint8"
        }
      ],
      "stateMutability": "view",
      "type": "function"
    },
    {
      "inputs": [
        {
          "internalType": "address",
          "name": "spender",
          "type": "address"
        },
        {
          "internalType": "uint256",
          "name": "subtractedValue",
          "type": "uint256"
        }
      ],
      "name": "decreaseAllowance",
      "outputs": [
        {
          "internalType": "bool",
          "name": "",
          "type": "bool"
        }
      ],
      "stateMutability": "nonpayable",
      "type": "function"
    },
    {
      "inputs": [
        {
          "internalType": "address",
          "name": "spender",
          "type": "address"
        },
        {
          "internalType": "uint256",
          "name": "addedValue",
          "type": "uint256"
        }
      ],
      "name": "increaseAllowance",
      "outputs": [
        {
          "internalType": "bool",
          "name": "",
          "type": "bool"
        }
      ],
      "stateMutability": "nonpayable",
      "type": "function"
    },
    {
      "inputs": [
        {
          "internalType": "string",
          "name": "_name",
          "type": "string"
        },
        {
          "internalType": "string",
          "name": "_symbol",
          "type": "string"
        },
        {
          "internalType": "address",
          "name": "_wrappedERC1155Address",
          "type": "address"
        },
        {
          "internalType": "uint256",
          "name": "_positionId",
          "type": "uint256"
        }
      ],
      "name": "initialize",
      "outputs": [],
      "stateMutability": "nonpayable",
      "type": "function"
    },
    {
      "inputs": [],
      "name": "name",
      "outputs": [
        {
          "internalType": "string",
          "name": "",
          "type": "string"
        }
      ],
      "stateMutability": "view",
      "type": "function"
    },
    {
      "inputs": [
        {
          "internalType": "address",
          "name": "",
          "type": "address"
        },
        {
          "internalType": "address",
          "name": "",
          "type": "address"
        },
        {
          "internalType": "uint256[]",
          "name": "",
          "type": "uint256[]"
        },
        {
          "internalType": "uint256[]",
          "name": "",
          "type": "uint256[]"
        },
        {
          "internalType": "bytes",
          "name": "",
          "type": "bytes"
        }
      ],
      "name": "onERC1155BatchReceived",
      "outputs": [
        {
          "internalType": "bytes4",
          "name": "",
          "type": "bytes4"
        }
      ],
      "stateMutability": "pure",
      "type": "function"
    },
    {
      "inputs": [
        {
          "internalType": "address",
          "name": "",
          "type": "address"
        },
        {
          "internalType": "address",
          "name": "_from",
          "type": "address"
        },
        {
          "internalType": "uint256",
          "name": "_id",
          "type": "uint256"
        },
        {
          "internalType": "uint256",
          "name": "_amount",
          "type": "uint256"
        },
        {
          "internalType": "bytes",
          "name": "",
          "type": "bytes"
        }
      ],
      "name": "onERC1155Received",
      "outputs": [
        {
          "internalType": "bytes4",
          "name": "",
          "type": "bytes4"
        }
      ],
      "stateMutability": "nonpayable",
      "type": "function"
    },
    {
      "inputs": [],
      "name": "owner",
      "outputs": [
        {
          "internalType": "address",
          "name": "",
          "type": "address"
        }
      ],
      "stateMutability": "view",
      "type": "function"
    },
    {
      "inputs": [],
      "name": "positionId",
      "outputs": [
        {
          "internalType": "uint256",
          "name": "",
          "type": "uint256"
        }
      ],
      "stateMutability": "view",
      "type": "function"
    },
    {
      "inputs": [],
      "name": "renounceOwnership",
      "outputs": [],
      "stateMutability": "nonpayable",
      "type": "function"
    },
    {
      "inputs": [
        {
          "internalType": "bytes4",
          "name": "interfaceId",
          "type": "bytes4"
        }
      ],
      "name": "supportsInterface",
      "outputs": [
        {
          "internalType": "bool",
          "name": "",
          "type": "bool"
        }
      ],
      "stateMutability": "pure",
      "type": "function"
    },
    {
      "inputs": [],
      "name": "symbol",
      "outputs": [
        {
          "internalType": "string",
          "name": "",
          "type": "string"
        }
      ],
      "stateMutability": "view",
      "type": "function"
    },
    {
      "inputs": [],
      "name": "totalSupply",
      "outputs": [
        {
          "internalType": "uint256",
          "name": "",
          "type": "uint256"
        }
      ],
      "stateMutability": "view",
      "type": "function"
    },
    {
      "inputs": [
        {
          "internalType": "address",
          "name": "recipient",
          "type": "address"
        },
        {
          "internalType": "uint256",
          "name": "amount",
          "type": "uint256"
        }
      ],
      "name": "transfer",
      "outputs": [
        {
          "internalType": "bool",
          "name": "",
          "type": "bool"
        }
      ],
      "stateMutability": "nonpayable",
      "type": "function"
    },
    {
      "inputs": [
        {
          "internalType": "address",
          "name": "sender",
          "type": "address"
        },
        {
          "internalType": "address",
          "name": "recipient",
          "type": "address"
        },
        {
          "internalType": "uint256",
          "name": "amount",
          "type": "uint256"
        }
      ],
      "name": "transferFrom",
      "outputs": [
        {
          "internalType": "bool",
          "name": "",
          "type": "bool"
        }
      ],
      "stateMutability": "nonpayable",
      "type": "function"
    },
    {
      "inputs": [
        {
          "internalType": "address",
          "name": "newOwner",
          "type": "address"
        }
      ],
      "name": "transferOwnership",
      "outputs": [],
      "stateMutability": "nonpayable",
      "type": "function"
    },
    {
      "inputs": [
        {
          "internalType": "uint256",
          "name": "_amount",
          "type": "uint256"
        }
      ],
      "name": "withdraw",
      "outputs": [],
      "stateMutability": "nonpayable",
      "type": "function"
    },
    {
      "inputs": [],
      "name": "wrappedERC1155Address",
      "outputs": [
        {
          "internalType": "address",
          "name": "",
          "type": "address"
        }
      ],
      "stateMutability": "view",
      "type": "function"
    }
  ],
  "bytecode": "0x60c060405263f23a6e6160e01b60805263bc197c8160e01b60a05234801561002657600080fd5b5060805160a0516001600160e01b03199182169116611a9461006160003960006106880152600081816105ab01526107ea0152611a946000f3fe608060405234801561001057600080fd5b506004361061014d5760003560e01c8063715018a6116100c3578063a9059cbb1161007c578063a9059cbb14610280578063bc197c8114610293578063dd62ed3e146102a6578063f23a6e61146102b9578063f2fde38b146102cc578063f542033f146102df5761014d565b8063715018a61461024557806371640de31461024d5780638da5cb5b146102555780639480079b1461025d57806395d89b4114610265578063a457c2d71461026d5761014d565b80632e1a7d4d116101155780632e1a7d4d146101cb578063313ce567146101e057806339509351146101f55780634fd178e0146102085780634ff5fbc01461021d57806370a08231146102325761014d565b806301ffc9a71461015257806306fdde031461017b578063095ea7b31461019057806318160ddd146101a357806323b872dd146101b8575b600080fd5b610165610160366004611377565b6102f2565b6040516101729190611524565b60405180910390f35b61018361030c565b604051610172919061158a565b61016561019e36600461134e565b61039e565b6101ab6103bb565b60405161017291906119c7565b6101656101c636600461129d565b6103c1565b6101de6101d9366004611425565b610461565b005b6101e8610546565b60405161017291906119d0565b61016561020336600461134e565b61054b565b61021061059a565b60405161017291906114b2565b6102256105a9565b604051610172919061152f565b6101ab610240366004611193565b6105cd565b6101de6105e8565b6101ab610671565b610210610677565b610225610686565b6101836106aa565b61016561027b36600461134e565b6106b9565b61016561028e36600461134e565b610734565b6102256102a13660046111e6565b610748565b6101ab6102b43660046111b4565b610756565b6102256102c73660046112d8565b610781565b6101de6102da366004611193565b610813565b6101de6102ed36600461139f565b6108d4565b6001600160e01b03198116630271189760e51b145b919050565b60606036805461031b90611a0d565b80601f016020809104026020016040519081016040528092919081815260200182805461034790611a0d565b80156103945780601f1061036957610100808354040283529160200191610394565b820191906000526020600020905b81548152906001019060200180831161037757829003601f168201915b5050505050905090565b60006103b26103ab6109e9565b84846109ed565b50600192915050565b60355490565b60006103ce848484610aa1565b6001600160a01b0384166000908152603460205260408120816103ef6109e9565b6001600160a01b03166001600160a01b031681526020019081526020016000205490508281101561043b5760405162461bcd60e51b8152600401610432906117c1565b60405180910390fd5b610456856104476109e9565b61045186856119f6565b6109ed565b506001949350505050565b8061046b336105cd565b10156104895760405162461bcd60e51b8152600401610432906116f0565b6104933382610bc9565b60995460985460408051602081018252600081529051637921219560e11b81526001600160a01b039093169263f242432a926104d892309233929188916004016114c6565b600060405180830381600087803b1580156104f257600080fd5b505af1158015610506573d6000803e3d6000fd5b505050507f7084f5476618d8e60b11ef0d7d3f06914655adb8793e28ff7f018d4c76d505d5338260405161053b92919061150b565b60405180910390a150565b601290565b60006103b26105586109e9565b8484603460006105666109e9565b6001600160a01b03908116825260208083019390935260409182016000908120918b168152925290205461045191906119de565b6099546001600160a01b031681565b7f000000000000000000000000000000000000000000000000000000000000000081565b6001600160a01b031660009081526033602052604090205490565b6105f06109e9565b6001600160a01b0316610601610677565b6001600160a01b0316146106275760405162461bcd60e51b815260040161043290611809565b6065546040516000916001600160a01b0316907f8be0079c531659141344cd1fd0a4f28419497f9722a3daafe3b4186f6b6457e0908390a3606580546001600160a01b0319169055565b60985481565b6065546001600160a01b031690565b7f000000000000000000000000000000000000000000000000000000000000000081565b60606037805461031b90611a0d565b600080603460006106c86109e9565b6001600160a01b03908116825260208083019390935260409182016000908120918816815292529020549050828110156107145760405162461bcd60e51b81526004016104329061194b565b61072a61071f6109e9565b8561045186856119f6565b5060019392505050565b60006103b26107416109e9565b8484610aa1565b600098975050505050505050565b6001600160a01b03918216600090815260346020908152604080832093909416825291909152205490565b600060985485146107a45760405162461bcd60e51b815260040161043290611780565b6107ae8685610caf565b7f2da466a7b24304f47e87fa2e1e5a81b9831ce54fec19055ce277ca2f39ba42c486856040516107df92919061150b565b60405180910390a1507f00000000000000000000000000000000000000000000000000000000000000009695505050505050565b61081b6109e9565b6001600160a01b031661082c610677565b6001600160a01b0316146108525760405162461bcd60e51b815260040161043290611809565b6001600160a01b0381166108785760405162461bcd60e51b815260040161043290611622565b6065546040516001600160a01b038084169216907f8be0079c531659141344cd1fd0a4f28419497f9722a3daafe3b4186f6b6457e090600090a3606580546001600160a01b0319166001600160a01b0392909216919091179055565b60975460ff16156108f75760405162461bcd60e51b81526004016104329061183e565b6108ff610d6f565b61097286868080601f01602080910402602001604051908101604052809392919081815260200183838082843760009201919091525050604080516020601f8a018190048102820181019092528881529250889150879081908401838280828437600092019190915250610df492505050565b6098819055609980546001600160a01b0319166001600160a01b0384161790556097805460ff191660011790556040517f6c96dc2880b3595ee759d1c82d0fc387cda2d900e7d9173e024216832a533770906109d990889088908890889088908890611544565b60405180910390a1505050505050565b3390565b6001600160a01b038316610a135760405162461bcd60e51b815260040161043290611907565b6001600160a01b038216610a395760405162461bcd60e51b815260040161043290611668565b6001600160a01b0380841660008181526034602090815260408083209487168084529490915290819020849055517f8c5be1e5ebec7d5bd14f71427d1e84f3dd0314c0f7b2291e5b200ac8c7c3b92590610a949085906119c7565b60405180910390a3505050565b6001600160a01b038316610ac75760405162461bcd60e51b8152600401610432906118c2565b6001600160a01b038216610aed5760405162461bcd60e51b81526004016104329061159d565b610af8838383610e78565b6001600160a01b03831660009081526033602052604090205481811015610b315760405162461bcd60e51b8152600401610432906116aa565b610b3b82826119f6565b6001600160a01b038086166000908152603360205260408082209390935590851681529081208054849290610b719084906119de565b92505081905550826001600160a01b0316846001600160a01b03167fddf252ad1be2c89b69c2b068fc378daa952ba7f163c4a11628f55a4df523b3ef84604051610bbb91906119c7565b60405180910390a350505050565b6001600160a01b038216610bef5760405162461bcd60e51b815260040161043290611881565b610bfb82600083610e78565b6001600160a01b03821660009081526033602052604090205481811015610c345760405162461bcd60e51b8152600401610432906115e0565b610c3e82826119f6565b6001600160a01b03841660009081526033602052604081209190915560358054849290610c6c9084906119f6565b90915550506040516000906001600160a01b038516907fddf252ad1be2c89b69c2b068fc378daa952ba7f163c4a11628f55a4df523b3ef90610a949086906119c7565b6001600160a01b038216610cd55760405162461bcd60e51b815260040161043290611990565b610ce160008383610e78565b8060356000828254610cf391906119de565b90915550506001600160a01b03821660009081526033602052604081208054839290610d209084906119de565b90915550506040516001600160a01b038316906000907fddf252ad1be2c89b69c2b068fc378daa952ba7f163c4a11628f55a4df523b3ef90610d639085906119c7565b60405180910390a35050565b600054610100900460ff1680610d88575060005460ff16155b610da45760405162461bcd60e51b815260040161043290611732565b600054610100900460ff16158015610dcf576000805460ff1961ff0019909116610100171660011790555b610dd7610e7d565b610ddf610ef0565b8015610df1576000805461ff00191690555b50565b600054610100900460ff1680610e0d575060005460ff16155b610e295760405162461bcd60e51b815260040161043290611732565b600054610100900460ff16158015610e54576000805460ff1961ff0019909116610100171660011790555b610e5c610e7d565b610e668383610fbc565b8015610e78576000805461ff00191690555b505050565b600054610100900460ff1680610e96575060005460ff16155b610eb25760405162461bcd60e51b815260040161043290611732565b600054610100900460ff16158015610ddf576000805460ff1961ff0019909116610100171660011790558015610df1576000805461ff001916905550565b600054610100900460ff1680610f09575060005460ff16155b610f255760405162461bcd60e51b815260040161043290611732565b600054610100900460ff16158015610f50576000805460ff1961ff0019909116610100171660011790555b6000610f5a6109e9565b606580546001600160a01b0319166001600160a01b038316908117909155604051919250906000907f8be0079c531659141344cd1fd0a4f28419497f9722a3daafe3b4186f6b6457e0908290a3508015610df1576000805461ff001916905550565b600054610100900460ff1680610fd5575060005460ff16155b610ff15760405162461bcd60e51b815260040161043290611732565b600054610100900460ff1615801561101c576000805460ff1961ff0019909116610100171660011790555b825161102f90603690602086019061105a565b50815161104390603790602085019061105a565b508015610e78576000805461ff0019169055505050565b82805461106690611a0d565b90600052602060002090601f01602090048101928261108857600085556110ce565b82601f106110a157805160ff19168380011785556110ce565b828001600101855582156110ce579182015b828111156110ce5782518255916020019190600101906110b3565b506110da9291506110de565b5090565b5b808211156110da57600081556001016110df565b80356001600160a01b038116811461030757600080fd5b60008083601f84011261111b578182fd5b50813567ffffffffffffffff811115611132578182fd5b602083019150836020808302850101111561114c57600080fd5b9250929050565b60008083601f840112611164578182fd5b50813567ffffffffffffffff81111561117b578182fd5b60208301915083602082850101111561114c57600080fd5b6000602082840312156111a4578081fd5b6111ad826110f3565b9392505050565b600080604083850312156111c6578081fd5b6111cf836110f3565b91506111dd602084016110f3565b90509250929050565b60008060008060008060008060a0898b031215611201578384fd5b61120a896110f3565b975061121860208a016110f3565b9650604089013567ffffffffffffffff80821115611234578586fd5b6112408c838d0161110a565b909850965060608b0135915080821115611258578586fd5b6112648c838d0161110a565b909650945060808b013591508082111561127c578384fd5b506112898b828c01611153565b999c989b5096995094979396929594505050565b6000806000606084860312156112b1578283fd5b6112ba846110f3565b92506112c8602085016110f3565b9150604084013590509250925092565b60008060008060008060a087890312156112f0578182fd5b6112f9876110f3565b9550611307602088016110f3565b94506040870135935060608701359250608087013567ffffffffffffffff811115611330578283fd5b61133c89828a01611153565b979a9699509497509295939492505050565b60008060408385031215611360578182fd5b611369836110f3565b946020939093013593505050565b600060208284031215611388578081fd5b81356001600160e01b0319811681146111ad578182fd5b600080600080600080608087890312156113b7578182fd5b863567ffffffffffffffff808211156113ce578384fd5b6113da8a838b01611153565b909850965060208901359150808211156113f2578384fd5b506113ff89828a01611153565b90955093506114129050604088016110f3565b9150606087013590509295509295509295565b600060208284031215611436578081fd5b5035919050565b60008151808452815b8181101561146257602081850181015186830182015201611446565b818111156114735782602083870101525b50601f01601f19169290920160200192915050565b60008284528282602086013780602084860101526020601f19601f85011685010190509392505050565b6001600160a01b0391909116815260200190565b6001600160a01b03868116825285166020820152604081018490526060810183905260a0608082018190526000906115009083018461143d565b979650505050505050565b6001600160a01b03929092168252602082015260400190565b901515815260200190565b6001600160e01b031991909116815260200190565b60006080825261155860808301888a611488565b828103602084015261156b818789611488565b6001600160a01b03959095166040840152505060600152949350505050565b6000602082526111ad602083018461143d565b60208082526023908201527f45524332303a207472616e7366657220746f20746865207a65726f206164647260408201526265737360e81b606082015260800190565b60208082526022908201527f45524332303a206275726e20616d6f756e7420657863656564732062616c616e604082015261636560f01b606082015260800190565b60208082526026908201527f4f776e61626c653a206e6577206f776e657220697320746865207a65726f206160408201526564647265737360d01b606082015260800190565b60208082526022908201527f45524332303a20617070726f766520746f20746865207a65726f206164647265604082015261737360f01b606082015260800190565b60208082526026908201527f45524332303a207472616e7366657220616d6f756e7420657863656564732062604082015265616c616e636560d01b606082015260800190565b60208082526022908201527f45524331313535577261707065723a206e6f7420656e6f7567682062616c616e604082015261636560f01b606082015260800190565b6020808252602e908201527f496e697469616c697a61626c653a20636f6e747261637420697320616c72656160408201526d191e481a5b9a5d1a585b1a5e995960921b606082015260800190565b60208082526021908201527f45524331313535577261707065723a2077726f6e6720706f736974696f6e20696040820152601960fa1b606082015260800190565b60208082526028908201527f45524332303a207472616e7366657220616d6f756e74206578636565647320616040820152676c6c6f77616e636560c01b606082015260800190565b6020808252818101527f4f776e61626c653a2063616c6c6572206973206e6f7420746865206f776e6572604082015260600190565b60208082526023908201527f45524331313535577261707065723a20616c726561647920696e697469616c696040820152621e995960ea1b606082015260800190565b60208082526021908201527f45524332303a206275726e2066726f6d20746865207a65726f206164647265736040820152607360f81b606082015260800190565b60208082526025908201527f45524332303a207472616e736665722066726f6d20746865207a65726f206164604082015264647265737360d81b606082015260800190565b60208082526024908201527f45524332303a20617070726f76652066726f6d20746865207a65726f206164646040820152637265737360e01b606082015260800190565b60208082526025908201527f45524332303a2064656372656173656420616c6c6f77616e63652062656c6f77604082015264207a65726f60d81b606082015260800190565b6020808252601f908201527f45524332303a206d696e7420746f20746865207a65726f206164647265737300604082015260600190565b90815260200190565b60ff91909116815260200190565b600082198211156119f1576119f1611a48565b500190565b600082821015611a0857611a08611a48565b500390565b600281046001821680611a2157607f821691505b60208210811415611a4257634e487b7160e01b600052602260045260246000fd5b50919050565b634e487b7160e01b600052601160045260246000fdfea264697066735822122048efbe2d13e9da99c79fa0e287610adae3d301196496cd9350a5912510c88e3664736f6c63430008000033",
  "linkReferences": {},
  "deployedLinkReferences": {}
}